{
  "address": "0x678D57570A53E1C3eAE053d74D72A1E46665E521",
  "abi": [
    {
      "inputs": [
        {
          "internalType": "string",
          "name": "uri",
          "type": "string"
        }
      ],
      "stateMutability": "nonpayable",
      "type": "constructor"
    },
    {
      "anonymous": false,
      "inputs": [
        {
          "indexed": true,
          "internalType": "address",
          "name": "account",
          "type": "address"
        },
        {
          "indexed": true,
          "internalType": "address",
          "name": "operator",
          "type": "address"
        },
        {
          "indexed": false,
          "internalType": "bool",
          "name": "approved",
          "type": "bool"
        }
      ],
      "name": "ApprovalForAll",
      "type": "event"
    },
    {
      "anonymous": false,
      "inputs": [
        {
          "indexed": true,
          "internalType": "address",
          "name": "previousOwner",
          "type": "address"
        },
        {
          "indexed": true,
          "internalType": "address",
          "name": "newOwner",
          "type": "address"
        }
      ],
      "name": "OwnershipTransferred",
      "type": "event"
    },
    {
      "anonymous": false,
      "inputs": [
        {
          "indexed": false,
          "internalType": "address",
          "name": "account",
          "type": "address"
        }
      ],
      "name": "Paused",
      "type": "event"
    },
    {
      "anonymous": false,
      "inputs": [
        {
          "indexed": true,
          "internalType": "address",
          "name": "operator",
          "type": "address"
        },
        {
          "indexed": true,
          "internalType": "address",
          "name": "from",
          "type": "address"
        },
        {
          "indexed": true,
          "internalType": "address",
          "name": "to",
          "type": "address"
        },
        {
          "indexed": false,
          "internalType": "uint256[]",
          "name": "ids",
          "type": "uint256[]"
        },
        {
          "indexed": false,
          "internalType": "uint256[]",
          "name": "values",
          "type": "uint256[]"
        }
      ],
      "name": "TransferBatch",
      "type": "event"
    },
    {
      "anonymous": false,
      "inputs": [
        {
          "indexed": true,
          "internalType": "address",
          "name": "operator",
          "type": "address"
        },
        {
          "indexed": true,
          "internalType": "address",
          "name": "from",
          "type": "address"
        },
        {
          "indexed": true,
          "internalType": "address",
          "name": "to",
          "type": "address"
        },
        {
          "indexed": false,
          "internalType": "uint256",
          "name": "id",
          "type": "uint256"
        },
        {
          "indexed": false,
          "internalType": "uint256",
          "name": "value",
          "type": "uint256"
        }
      ],
      "name": "TransferSingle",
      "type": "event"
    },
    {
      "anonymous": false,
      "inputs": [
        {
          "indexed": false,
          "internalType": "string",
          "name": "value",
          "type": "string"
        },
        {
          "indexed": true,
          "internalType": "uint256",
          "name": "id",
          "type": "uint256"
        }
      ],
      "name": "URI",
      "type": "event"
    },
    {
      "anonymous": false,
      "inputs": [
        {
          "indexed": false,
          "internalType": "address",
          "name": "account",
          "type": "address"
        }
      ],
      "name": "Unpaused",
      "type": "event"
    },
    {
      "inputs": [
        {
          "internalType": "uint256",
          "name": "id",
          "type": "uint256"
        },
        {
          "internalType": "uint256",
          "name": "amount",
          "type": "uint256"
        }
      ],
      "name": "allowListMint",
      "outputs": [],
      "stateMutability": "payable",
      "type": "function"
    },
    {
      "inputs": [
        {
          "internalType": "address",
          "name": "account",
          "type": "address"
        },
        {
          "internalType": "uint256",
          "name": "id",
          "type": "uint256"
        }
      ],
      "name": "balanceOf",
      "outputs": [
        {
          "internalType": "uint256",
          "name": "",
          "type": "uint256"
        }
      ],
      "stateMutability": "view",
      "type": "function"
    },
    {
      "inputs": [
        {
          "internalType": "address[]",
          "name": "accounts",
          "type": "address[]"
        },
        {
          "internalType": "uint256[]",
          "name": "ids",
          "type": "uint256[]"
        }
      ],
      "name": "balanceOfBatch",
      "outputs": [
        {
          "internalType": "uint256[]",
          "name": "",
          "type": "uint256[]"
        }
      ],
      "stateMutability": "view",
      "type": "function"
    },
    {
      "inputs": [
        {
          "internalType": "uint256",
          "name": "id",
          "type": "uint256"
        }
      ],
      "name": "exists",
      "outputs": [
        {
          "internalType": "bool",
          "name": "",
          "type": "bool"
        }
      ],
      "stateMutability": "view",
      "type": "function"
    },
    {
      "inputs": [
        {
          "internalType": "address",
          "name": "account",
          "type": "address"
        },
        {
          "internalType": "address",
          "name": "operator",
          "type": "address"
        }
      ],
      "name": "isApprovedForAll",
      "outputs": [
        {
          "internalType": "bool",
          "name": "",
          "type": "bool"
        }
      ],
      "stateMutability": "view",
      "type": "function"
    },
    {
      "inputs": [],
      "name": "maxPerWallet",
      "outputs": [
        {
          "internalType": "uint256",
          "name": "",
          "type": "uint256"
        }
      ],
      "stateMutability": "view",
      "type": "function"
    },
    {
      "inputs": [
        {
          "internalType": "uint256",
          "name": "id",
          "type": "uint256"
        },
        {
          "internalType": "uint256",
          "name": "amount",
          "type": "uint256"
        }
      ],
      "name": "mint",
      "outputs": [],
      "stateMutability": "payable",
      "type": "function"
    },
    {
      "inputs": [
        {
          "internalType": "address",
          "name": "to",
          "type": "address"
        },
        {
          "internalType": "uint256[]",
          "name": "ids",
          "type": "uint256[]"
        },
        {
          "internalType": "uint256[]",
          "name": "amounts",
          "type": "uint256[]"
        },
        {
          "internalType": "bytes",
          "name": "data",
          "type": "bytes"
        }
      ],
      "name": "mintBatch",
      "outputs": [],
      "stateMutability": "nonpayable",
      "type": "function"
    },
    {
      "inputs": [],
      "name": "owner",
      "outputs": [
        {
          "internalType": "address",
          "name": "",
          "type": "address"
        }
      ],
      "stateMutability": "view",
      "type": "function"
    },
    {
      "inputs": [],
      "name": "pause",
      "outputs": [],
      "stateMutability": "nonpayable",
      "type": "function"
    },
    {
      "inputs": [],
      "name": "paused",
      "outputs": [
        {
          "internalType": "bool",
          "name": "",
          "type": "bool"
        }
      ],
      "stateMutability": "view",
      "type": "function"
    },
    {
      "inputs": [
        {
          "internalType": "address",
          "name": "",
          "type": "address"
        }
      ],
      "name": "purchasesPerWallet",
      "outputs": [
        {
          "internalType": "uint256",
          "name": "",
          "type": "uint256"
        }
      ],
      "stateMutability": "view",
      "type": "function"
    },
    {
      "inputs": [],
      "name": "renounceOwnership",
      "outputs": [],
      "stateMutability": "nonpayable",
      "type": "function"
    },
    {
      "inputs": [
        {
          "internalType": "address",
          "name": "from",
          "type": "address"
        },
        {
          "internalType": "address",
          "name": "to",
          "type": "address"
        },
        {
          "internalType": "uint256[]",
          "name": "ids",
          "type": "uint256[]"
        },
        {
          "internalType": "uint256[]",
          "name": "amounts",
          "type": "uint256[]"
        },
        {
          "internalType": "bytes",
          "name": "data",
          "type": "bytes"
        }
      ],
      "name": "safeBatchTransferFrom",
      "outputs": [],
      "stateMutability": "nonpayable",
      "type": "function"
    },
    {
      "inputs": [
        {
          "internalType": "address",
          "name": "from",
          "type": "address"
        },
        {
          "internalType": "address",
          "name": "to",
          "type": "address"
        },
        {
          "internalType": "uint256",
          "name": "id",
          "type": "uint256"
        },
        {
          "internalType": "uint256",
          "name": "amount",
          "type": "uint256"
        },
        {
          "internalType": "bytes",
          "name": "data",
          "type": "bytes"
        }
      ],
      "name": "safeTransferFrom",
      "outputs": [],
      "stateMutability": "nonpayable",
      "type": "function"
    },
    {
      "inputs": [
        {
          "internalType": "address",
          "name": "operator",
          "type": "address"
        },
        {
          "internalType": "bool",
          "name": "approved",
          "type": "bool"
        }
      ],
      "name": "setApprovalForAll",
      "outputs": [],
      "stateMutability": "nonpayable",
      "type": "function"
    },
    {
      "inputs": [
        {
          "internalType": "string",
          "name": "newUri",
          "type": "string"
        }
      ],
      "name": "setURI",
      "outputs": [],
      "stateMutability": "nonpayable",
      "type": "function"
    },
    {
      "inputs": [
        {
          "internalType": "bytes4",
          "name": "interfaceId",
          "type": "bytes4"
        }
      ],
      "name": "supportsInterface",
      "outputs": [
        {
          "internalType": "bool",
          "name": "",
          "type": "bool"
        }
      ],
      "stateMutability": "view",
      "type": "function"
    },
    {
      "inputs": [
        {
          "internalType": "uint256",
          "name": "id",
          "type": "uint256"
        }
      ],
      "name": "totalSupply",
      "outputs": [
        {
          "internalType": "uint256",
          "name": "",
          "type": "uint256"
        }
      ],
      "stateMutability": "view",
      "type": "function"
    },
    {
      "inputs": [
        {
          "internalType": "address",
          "name": "newOwner",
          "type": "address"
        }
      ],
      "name": "transferOwnership",
      "outputs": [],
      "stateMutability": "nonpayable",
      "type": "function"
    },
    {
      "inputs": [],
      "name": "unpause",
      "outputs": [],
      "stateMutability": "nonpayable",
      "type": "function"
    },
    {
      "inputs": [
        {
          "internalType": "uint256",
          "name": "",
          "type": "uint256"
        }
      ],
      "name": "uri",
      "outputs": [
        {
          "internalType": "string",
          "name": "",
          "type": "string"
        }
      ],
      "stateMutability": "view",
      "type": "function"
    },
    {
      "inputs": [
        {
          "internalType": "address payable",
          "name": "_addr",
          "type": "address"
        }
      ],
      "name": "withdraw",
      "outputs": [],
      "stateMutability": "nonpayable",
      "type": "function"
    }
  ],
  "transactionHash": "0x50ca655c47a79e37dc948d229487877191bd99de40e7d3d43e5b71188ce054ec",
  "args": [
    "0x144814276FB53240Ab83227D10Ac60E32dCD9C0a"
  ],
  "numDeployments": 1,
  "solcInputHash": "38bcb77156662961bb92b47eebe56bc9",
  "bytecode": "0x608060405260056006553480156200001657600080fd5b5060405162002410380380620024108339810160408190526200003991620000df565b80620000458162000065565b50620000513362000077565b506003805460ff60a01b191690556200030f565b600262000073828262000243565b5050565b600380546001600160a01b038381166001600160a01b0319831681179093556040519116919082907f8be0079c531659141344cd1fd0a4f28419497f9722a3daafe3b4186f6b6457e090600090a35050565b634e487b7160e01b600052604160045260246000fd5b60006020808385031215620000f357600080fd5b82516001600160401b03808211156200010b57600080fd5b818501915085601f8301126200012057600080fd5b815181811115620001355762000135620000c9565b604051601f8201601f19908116603f01168101908382118183101715620001605762000160620000c9565b8160405282815288868487010111156200017957600080fd5b600093505b828410156200019d57848401860151818501870152928501926200017e565b600086848301015280965050505050505092915050565b600181811c90821680620001c957607f821691505b602082108103620001ea57634e487b7160e01b600052602260045260246000fd5b50919050565b601f8211156200023e57600081815260208120601f850160051c81016020861015620002195750805b601f850160051c820191505b818110156200023a5782815560010162000225565b5050505b505050565b81516001600160401b038111156200025f576200025f620000c9565b6200027781620002708454620001b4565b84620001f0565b602080601f831160018114620002af5760008415620002965750858301515b600019600386901b1c1916600185901b1785556200023a565b600085815260208120601f198616915b82811015620002e057888601518255948401946001909101908401620002bf565b5085821015620002ff5787850151600019600388901b60f8161c191681555b5050505050600190811b01905550565b6120f1806200031f6000396000f3fe60806040526004361061013f5760003560e01c80634f558e79116100b657806397959f6d1161006f57806397959f6d14610373578063a22cb465146103a0578063bd85b039146103c0578063e985e9c5146103ed578063f242432a14610436578063f2fde38b1461045657600080fd5b80634f558e79146102b357806351cff8d9146102e25780635c975abb14610302578063715018a6146103215780638456cb59146103365780638da5cb5b1461034b57600080fd5b80631b2ef1ca116101085780631b2ef1ca146102085780631f7fdffa1461021b5780632eb2c2d61461023b5780633f4ba83a1461025b578063453c2310146102705780634e1273f41461028657600080fd5b8062fdd58e1461014457806301ffc9a71461017757806302fe5305146101a75780630e89341c146101c9578063128ac91b146101f6575b600080fd5b34801561015057600080fd5b5061016461015f3660046115ea565b610476565b6040519081526020015b60405180910390f35b34801561018357600080fd5b5061019761019236600461162c565b61050f565b604051901515815260200161016e565b3480156101b357600080fd5b506101c76101c23660046116f1565b61055f565b005b3480156101d557600080fd5b506101e96101e4366004611742565b610573565b60405161016e91906117a1565b6101c76102043660046117b4565b5050565b6101c76102163660046117b4565b610607565b34801561022757600080fd5b506101c761023636600461188b565b6106af565b34801561024757600080fd5b506101c7610256366004611926565b6106c9565b34801561026757600080fd5b506101c7610715565b34801561027c57600080fd5b5061016460065481565b34801561029257600080fd5b506102a66102a13660046119d4565b610727565b60405161016e9190611adc565b3480156102bf57600080fd5b506101976102ce366004611742565b600090815260046020526040902054151590565b3480156102ee57600080fd5b506101c76102fd366004611aef565b610851565b34801561030e57600080fd5b50600354600160a01b900460ff16610197565b34801561032d57600080fd5b506101c7610896565b34801561034257600080fd5b506101c76108a8565b34801561035757600080fd5b506003546040516001600160a01b03909116815260200161016e565b34801561037f57600080fd5b5061016461038e366004611aef565b60056020526000908152604090205481565b3480156103ac57600080fd5b506101c76103bb366004611b0c565b6108b8565b3480156103cc57600080fd5b506101646103db366004611742565b60009081526004602052604090205490565b3480156103f957600080fd5b50610197610408366004611b4a565b6001600160a01b03918216600090815260016020908152604080832093909416825291909152205460ff1690565b34801561044257600080fd5b506101c7610451366004611b78565b6108c3565b34801561046257600080fd5b506101c7610471366004611aef565b610908565b60006001600160a01b0383166104e65760405162461bcd60e51b815260206004820152602a60248201527f455243313135353a2061646472657373207a65726f206973206e6f742061207660448201526930b634b21037bbb732b960b11b60648201526084015b60405180910390fd5b506000818152602081815260408083206001600160a01b03861684529091529020545b92915050565b60006001600160e01b03198216636cdb3d1360e11b148061054057506001600160e01b031982166303a24d0760e21b145b8061050957506301ffc9a760e01b6001600160e01b0319831614610509565b61056761097e565b610570816109d8565b50565b60606002805461058290611be1565b80601f01602080910402602001604051908101604052809291908181526020018280546105ae90611be1565b80156105fb5780601f106105d0576101008083540402835291602001916105fb565b820191906000526020600020905b8154815290600101906020018083116105de57829003601f168201915b50505050509050919050565b60065433600090815260056020526040902054610625908390611c31565b111561066c5760405162461bcd60e51b8152602060048201526016602482015275115e18d959591cc81b585e081c195c881dd85b1b195d60521b60448201526064016104dd565b610687338383604051806020016040528060008152506109e4565b33600090815260056020526040812080548392906106a6908490611c31565b90915550505050565b6106b761097e565b6106c384848484610acd565b50505050565b6001600160a01b0385163314806106e557506106e58533610408565b6107015760405162461bcd60e51b81526004016104dd90611c44565b61070e8585858585610c27565b5050505050565b61071d61097e565b610725610dd1565b565b6060815183511461078c5760405162461bcd60e51b815260206004820152602960248201527f455243313135353a206163636f756e747320616e6420696473206c656e677468604482015268040dad2e6dac2e8c6d60bb1b60648201526084016104dd565b6000835167ffffffffffffffff8111156107a8576107a8611650565b6040519080825280602002602001820160405280156107d1578160200160208202803683370190505b50905060005b84518110156108495761081c8582815181106107f5576107f5611c92565b602002602001015185838151811061080f5761080f611c92565b6020026020010151610476565b82828151811061082e5761082e611c92565b602090810291909101015261084281611ca8565b90506107d7565b509392505050565b61085961097e565b60405147906001600160a01b0383169082156108fc029083906000818181858888f19350505050158015610891573d6000803e3d6000fd5b505050565b61089e61097e565b6107256000610e26565b6108b061097e565b610725610e78565b610204338383610ebb565b6001600160a01b0385163314806108df57506108df8533610408565b6108fb5760405162461bcd60e51b81526004016104dd90611c44565b61070e8585858585610f9b565b61091061097e565b6001600160a01b0381166109755760405162461bcd60e51b815260206004820152602660248201527f4f776e61626c653a206e6577206f776e657220697320746865207a65726f206160448201526564647265737360d01b60648201526084016104dd565b61057081610e26565b6003546001600160a01b031633146107255760405162461bcd60e51b815260206004820181905260248201527f4f776e61626c653a2063616c6c6572206973206e6f7420746865206f776e657260448201526064016104dd565b60026102048282611d07565b6001600160a01b038416610a0a5760405162461bcd60e51b81526004016104dd90611dc7565b336000610a16856110d3565b90506000610a23856110d3565b9050610a348360008985858961111e565b6000868152602081815260408083206001600160a01b038b16845290915281208054879290610a64908490611c31565b909155505060408051878152602081018790526001600160a01b03808a1692600092918716917fc3d58168c5ae7397731d063d5bbf3d657854427343f4c083240f7aacaa2d0f62910160405180910390a4610ac48360008989898961112c565b50505050505050565b6001600160a01b038416610af35760405162461bcd60e51b81526004016104dd90611dc7565b8151835114610b145760405162461bcd60e51b81526004016104dd90611e08565b33610b248160008787878761111e565b60005b8451811015610bbf57838181518110610b4257610b42611c92565b6020026020010151600080878481518110610b5f57610b5f611c92565b602002602001015181526020019081526020016000206000886001600160a01b03166001600160a01b031681526020019081526020016000206000828254610ba79190611c31565b90915550819050610bb781611ca8565b915050610b27565b50846001600160a01b031660006001600160a01b0316826001600160a01b03167f4a39dc06d4c0dbc64b70af90fd698a233a518aa5d07e595d983b8c0526c8f7fb8787604051610c10929190611e50565b60405180910390a461070e81600087878787611287565b8151835114610c485760405162461bcd60e51b81526004016104dd90611e08565b6001600160a01b038416610c6e5760405162461bcd60e51b81526004016104dd90611e7e565b33610c7d81878787878761111e565b60005b8451811015610d63576000858281518110610c9d57610c9d611c92565b602002602001015190506000858381518110610cbb57610cbb611c92565b602090810291909101810151600084815280835260408082206001600160a01b038e168352909352919091205490915081811015610d0b5760405162461bcd60e51b81526004016104dd90611ec3565b6000838152602081815260408083206001600160a01b038e8116855292528083208585039055908b16825281208054849290610d48908490611c31565b9250508190555050505080610d5c90611ca8565b9050610c80565b50846001600160a01b0316866001600160a01b0316826001600160a01b03167f4a39dc06d4c0dbc64b70af90fd698a233a518aa5d07e595d983b8c0526c8f7fb8787604051610db3929190611e50565b60405180910390a4610dc9818787878787611287565b505050505050565b610dd9611342565b6003805460ff60a01b191690557f5db9ee0a495bf2e6ff9c91a7834c1ba4fdd244a5e8aa4e537bd38aeae4b073aa335b6040516001600160a01b03909116815260200160405180910390a1565b600380546001600160a01b038381166001600160a01b0319831681179093556040519116919082907f8be0079c531659141344cd1fd0a4f28419497f9722a3daafe3b4186f6b6457e090600090a35050565b610e80611392565b6003805460ff60a01b1916600160a01b1790557f62e78cea01bee320cd4e420270b5ea74000d11b0c9f74754ebdbfc544b05a258610e093390565b816001600160a01b0316836001600160a01b031603610f2e5760405162461bcd60e51b815260206004820152602960248201527f455243313135353a2073657474696e6720617070726f76616c20737461747573604482015268103337b91039b2b63360b91b60648201526084016104dd565b6001600160a01b03838116600081815260016020908152604080832094871680845294825291829020805460ff191686151590811790915591519182527f17307eab39ab6107e8899845ad3d59bd9653f200f220920489ca2b5937696c31910160405180910390a3505050565b6001600160a01b038416610fc15760405162461bcd60e51b81526004016104dd90611e7e565b336000610fcd856110d3565b90506000610fda856110d3565b9050610fea83898985858961111e565b6000868152602081815260408083206001600160a01b038c1684529091529020548581101561102b5760405162461bcd60e51b81526004016104dd90611ec3565b6000878152602081815260408083206001600160a01b038d8116855292528083208985039055908a16825281208054889290611068908490611c31565b909155505060408051888152602081018890526001600160a01b03808b16928c821692918816917fc3d58168c5ae7397731d063d5bbf3d657854427343f4c083240f7aacaa2d0f62910160405180910390a46110c8848a8a8a8a8a61112c565b505050505050505050565b6040805160018082528183019092526060916000919060208083019080368337019050509050828160008151811061110d5761110d611c92565b602090810291909101015292915050565b610dc98686868686866113df565b6001600160a01b0384163b15610dc95760405163f23a6e6160e01b81526001600160a01b0385169063f23a6e61906111709089908990889088908890600401611f0d565b6020604051808303816000875af19250505080156111ab575060408051601f3d908101601f191682019092526111a891810190611f52565b60015b611257576111b7611f6f565b806308c379a0036111f057506111cb611f8b565b806111d657506111f2565b8060405162461bcd60e51b81526004016104dd91906117a1565b505b60405162461bcd60e51b815260206004820152603460248201527f455243313135353a207472616e7366657220746f206e6f6e2d455243313135356044820152732932b1b2b4bb32b91034b6b83632b6b2b73a32b960611b60648201526084016104dd565b6001600160e01b0319811663f23a6e6160e01b14610ac45760405162461bcd60e51b81526004016104dd90612015565b6001600160a01b0384163b15610dc95760405163bc197c8160e01b81526001600160a01b0385169063bc197c81906112cb908990899088908890889060040161205d565b6020604051808303816000875af1925050508015611306575060408051601f3d908101601f1916820190925261130391810190611f52565b60015b611312576111b7611f6f565b6001600160e01b0319811663bc197c8160e01b14610ac45760405162461bcd60e51b81526004016104dd90612015565b600354600160a01b900460ff166107255760405162461bcd60e51b815260206004820152601460248201527314185d5cd8589b194e881b9bdd081c185d5cd95960621b60448201526064016104dd565b600354600160a01b900460ff16156107255760405162461bcd60e51b815260206004820152601060248201526f14185d5cd8589b194e881c185d5cd95960821b60448201526064016104dd565b6113ed868686868686611566565b6001600160a01b0385166114745760005b83518110156114725782818151811061141957611419611c92565b60200260200101516004600086848151811061143757611437611c92565b60200260200101518152602001908152602001600020600082825461145c9190611c31565b9091555061146b905081611ca8565b90506113fe565b505b6001600160a01b038416610dc95760005b8351811015610ac45760008482815181106114a2576114a2611c92565b6020026020010151905060008483815181106114c0576114c0611c92565b60200260200101519050600060046000848152602001908152602001600020549050818110156115435760405162461bcd60e51b815260206004820152602860248201527f455243313135353a206275726e20616d6f756e74206578636565647320746f74604482015267616c537570706c7960c01b60648201526084016104dd565b6000928352600460205260409092209103905561155f81611ca8565b9050611485565b600354600160a01b900460ff1615610dc95760405162461bcd60e51b815260206004820152602c60248201527f455243313135355061757361626c653a20746f6b656e207472616e736665722060448201526b1dda1a5b19481c185d5cd95960a21b60648201526084016104dd565b6001600160a01b038116811461057057600080fd5b600080604083850312156115fd57600080fd5b8235611608816115d5565b946020939093013593505050565b6001600160e01b03198116811461057057600080fd5b60006020828403121561163e57600080fd5b813561164981611616565b9392505050565b634e487b7160e01b600052604160045260246000fd5b601f8201601f1916810167ffffffffffffffff8111828210171561168c5761168c611650565b6040525050565b600067ffffffffffffffff8311156116ad576116ad611650565b6040516116c4601f8501601f191660200182611666565b8091508381528484840111156116d957600080fd5b83836020830137600060208583010152509392505050565b60006020828403121561170357600080fd5b813567ffffffffffffffff81111561171a57600080fd5b8201601f8101841361172b57600080fd5b61173a84823560208401611693565b949350505050565b60006020828403121561175457600080fd5b5035919050565b6000815180845260005b8181101561178157602081850181015186830182015201611765565b506000602082860101526020601f19601f83011685010191505092915050565b602081526000611649602083018461175b565b600080604083850312156117c757600080fd5b50508035926020909101359150565b600067ffffffffffffffff8211156117f0576117f0611650565b5060051b60200190565b600082601f83011261180b57600080fd5b81356020611818826117d6565b6040516118258282611666565b83815260059390931b850182019282810191508684111561184557600080fd5b8286015b848110156118605780358352918301918301611849565b509695505050505050565b600082601f83011261187c57600080fd5b61164983833560208501611693565b600080600080608085870312156118a157600080fd5b84356118ac816115d5565b9350602085013567ffffffffffffffff808211156118c957600080fd5b6118d5888389016117fa565b945060408701359150808211156118eb57600080fd5b6118f7888389016117fa565b9350606087013591508082111561190d57600080fd5b5061191a8782880161186b565b91505092959194509250565b600080600080600060a0868803121561193e57600080fd5b8535611949816115d5565b94506020860135611959816115d5565b9350604086013567ffffffffffffffff8082111561197657600080fd5b61198289838a016117fa565b9450606088013591508082111561199857600080fd5b6119a489838a016117fa565b935060808801359150808211156119ba57600080fd5b506119c78882890161186b565b9150509295509295909350565b600080604083850312156119e757600080fd5b823567ffffffffffffffff808211156119ff57600080fd5b818501915085601f830112611a1357600080fd5b81356020611a20826117d6565b604051611a2d8282611666565b83815260059390931b8501820192828101915089841115611a4d57600080fd5b948201945b83861015611a74578535611a65816115d5565b82529482019490820190611a52565b96505086013592505080821115611a8a57600080fd5b50611a97858286016117fa565b9150509250929050565b600081518084526020808501945080840160005b83811015611ad157815187529582019590820190600101611ab5565b509495945050505050565b6020815260006116496020830184611aa1565b600060208284031215611b0157600080fd5b8135611649816115d5565b60008060408385031215611b1f57600080fd5b8235611b2a816115d5565b915060208301358015158114611b3f57600080fd5b809150509250929050565b60008060408385031215611b5d57600080fd5b8235611b68816115d5565b91506020830135611b3f816115d5565b600080600080600060a08688031215611b9057600080fd5b8535611b9b816115d5565b94506020860135611bab816115d5565b93506040860135925060608601359150608086013567ffffffffffffffff811115611bd557600080fd5b6119c78882890161186b565b600181811c90821680611bf557607f821691505b602082108103611c1557634e487b7160e01b600052602260045260246000fd5b50919050565b634e487b7160e01b600052601160045260246000fd5b8082018082111561050957610509611c1b565b6020808252602e908201527f455243313135353a2063616c6c6572206973206e6f7420746f6b656e206f776e60408201526d195c881bdc88185c1c1c9bdd995960921b606082015260800190565b634e487b7160e01b600052603260045260246000fd5b600060018201611cba57611cba611c1b565b5060010190565b601f82111561089157600081815260208120601f850160051c81016020861015611ce85750805b601f850160051c820191505b81811015610dc957828155600101611cf4565b815167ffffffffffffffff811115611d2157611d21611650565b611d3581611d2f8454611be1565b84611cc1565b602080601f831160018114611d6a5760008415611d525750858301515b600019600386901b1c1916600185901b178555610dc9565b600085815260208120601f198616915b82811015611d9957888601518255948401946001909101908401611d7a565b5085821015611db75787850151600019600388901b60f8161c191681555b5050505050600190811b01905550565b60208082526021908201527f455243313135353a206d696e7420746f20746865207a65726f206164647265736040820152607360f81b606082015260800190565b60208082526028908201527f455243313135353a2069647320616e6420616d6f756e7473206c656e677468206040820152670dad2e6dac2e8c6d60c31b606082015260800190565b604081526000611e636040830185611aa1565b8281036020840152611e758185611aa1565b95945050505050565b60208082526025908201527f455243313135353a207472616e7366657220746f20746865207a65726f206164604082015264647265737360d81b606082015260800190565b6020808252602a908201527f455243313135353a20696e73756666696369656e742062616c616e636520666f60408201526939103a3930b739b332b960b11b606082015260800190565b6001600160a01b03868116825285166020820152604081018490526060810183905260a060808201819052600090611f479083018461175b565b979650505050505050565b600060208284031215611f6457600080fd5b815161164981611616565b600060033d1115611f885760046000803e5060005160e01c5b90565b600060443d1015611f995790565b6040516003193d81016004833e81513d67ffffffffffffffff8160248401118184111715611fc957505050505090565b8285019150815181811115611fe15750505050505090565b843d8701016020828501011115611ffb5750505050505090565b61200a60208286010187611666565b509095945050505050565b60208082526028908201527f455243313135353a204552433131353552656365697665722072656a656374656040820152676420746f6b656e7360c01b606082015260800190565b6001600160a01b0386811682528516602082015260a06040820181905260009061208990830186611aa1565b828103606084015261209b8186611aa1565b905082810360808401526120af818561175b565b9897505050505050505056fea2646970667358221220d0013ef2534b8b4b2021b02a706089e9266aedad82b41b19cc29166e8503439664736f6c63430008140033",
  "devdoc": {
    "events": {
      "ApprovalForAll(address,address,bool)": {
        "details": "Emitted when `account` grants or revokes permission to `operator` to transfer their tokens, according to `approved`."
      },
      "Paused(address)": {
        "details": "Emitted when the pause is triggered by `account`."
      },
      "TransferBatch(address,address,address,uint256[],uint256[])": {
        "details": "Equivalent to multiple {TransferSingle} events, where `operator`, `from` and `to` are the same for all transfers."
      },
      "TransferSingle(address,address,address,uint256,uint256)": {
        "details": "Emitted when `value` tokens of token type `id` are transferred from `from` to `to` by `operator`."
      },
      "URI(string,uint256)": {
        "details": "Emitted when the URI for token type `id` changes to `value`, if it is a non-programmatic URI. If an {URI} event was emitted for `id`, the standard https://eips.ethereum.org/EIPS/eip-1155#metadata-extensions[guarantees] that `value` will equal the value returned by {IERC1155MetadataURI-uri}."
      },
      "Unpaused(address)": {
        "details": "Emitted when the pause is lifted by `account`."
      }
    },
    "kind": "dev",
    "methods": {
      "balanceOf(address,uint256)": {
        "details": "See {IERC1155-balanceOf}. Requirements: - `account` cannot be the zero address."
      },
      "balanceOfBatch(address[],uint256[])": {
        "details": "See {IERC1155-balanceOfBatch}. Requirements: - `accounts` and `ids` must have the same length."
      },
      "exists(uint256)": {
        "details": "Indicates whether any token exist with a given id, or not."
      },
      "isApprovedForAll(address,address)": {
        "details": "See {IERC1155-isApprovedForAll}."
      },
      "owner()": {
        "details": "Returns the address of the current owner."
      },
      "paused()": {
        "details": "Returns true if the contract is paused, and false otherwise."
      },
      "renounceOwnership()": {
        "details": "Leaves the contract without owner. It will not be possible to call `onlyOwner` functions anymore. Can only be called by the current owner. NOTE: Renouncing ownership will leave the contract without an owner, thereby removing any functionality that is only available to the owner."
      },
      "safeBatchTransferFrom(address,address,uint256[],uint256[],bytes)": {
        "details": "See {IERC1155-safeBatchTransferFrom}."
      },
      "safeTransferFrom(address,address,uint256,uint256,bytes)": {
        "details": "See {IERC1155-safeTransferFrom}."
      },
      "setApprovalForAll(address,bool)": {
        "details": "See {IERC1155-setApprovalForAll}."
      },
      "supportsInterface(bytes4)": {
        "details": "See {IERC165-supportsInterface}."
      },
      "totalSupply(uint256)": {
        "details": "Total amount of tokens in with a given id."
      },
      "transferOwnership(address)": {
        "details": "Transfers ownership of the contract to a new account (`newOwner`). Can only be called by the current owner."
      },
      "uri(uint256)": {
        "details": "See {IERC1155MetadataURI-uri}. This implementation returns the same URI for *all* token types. It relies on the token type ID substitution mechanism https://eips.ethereum.org/EIPS/eip-1155#metadata[defined in the EIP]. Clients calling this function must replace the `\\{id\\}` substring with the actual token type ID."
      }
    },
    "version": 1
  },
  "userdoc": {
    "kind": "user",
    "methods": {},
    "version": 1
  },
  "storageLayout": {
    "storage": [
      {
        "astId": 246,
        "contract": "contracts/NewsContract.sol:UnjournNewsLetter",
        "label": "_balances",
        "offset": 0,
        "slot": "0",
        "type": "t_mapping(t_uint256,t_mapping(t_address,t_uint256))"
      },
      {
        "astId": 252,
        "contract": "contracts/NewsContract.sol:UnjournNewsLetter",
        "label": "_operatorApprovals",
        "offset": 0,
        "slot": "1",
        "type": "t_mapping(t_address,t_mapping(t_address,t_bool))"
      },
      {
        "astId": 254,
        "contract": "contracts/NewsContract.sol:UnjournNewsLetter",
        "label": "_uri",
        "offset": 0,
        "slot": "2",
        "type": "t_string_storage"
      },
      {
        "astId": 7,
        "contract": "contracts/NewsContract.sol:UnjournNewsLetter",
        "label": "_owner",
        "offset": 0,
        "slot": "3",
        "type": "t_address"
      },
      {
        "astId": 130,
        "contract": "contracts/NewsContract.sol:UnjournNewsLetter",
        "label": "_paused",
        "offset": 20,
        "slot": "3",
        "type": "t_bool"
      },
      {
        "astId": 1664,
        "contract": "contracts/NewsContract.sol:UnjournNewsLetter",
        "label": "_totalSupply",
        "offset": 0,
        "slot": "4",
        "type": "t_mapping(t_uint256,t_uint256)"
      },
      {
        "astId": 3273,
        "contract": "contracts/NewsContract.sol:UnjournNewsLetter",
        "label": "purchasesPerWallet",
        "offset": 0,
        "slot": "5",
        "type": "t_mapping(t_address,t_uint256)"
      },
      {
        "astId": 3276,
        "contract": "contracts/NewsContract.sol:UnjournNewsLetter",
        "label": "maxPerWallet",
        "offset": 0,
        "slot": "6",
        "type": "t_uint256"
      }
    ],
    "types": {
      "t_address": {
        "encoding": "inplace",
        "label": "address",
        "numberOfBytes": "20"
      },
      "t_bool": {
        "encoding": "inplace",
        "label": "bool",
        "numberOfBytes": "1"
      },
      "t_mapping(t_address,t_bool)": {
        "encoding": "mapping",
        "key": "t_address",
        "label": "mapping(address => bool)",
        "numberOfBytes": "32",
        "value": "t_bool"
      },
      "t_mapping(t_address,t_mapping(t_address,t_bool))": {
        "encoding": "mapping",
        "key": "t_address",
        "label": "mapping(address => mapping(address => bool))",
        "numberOfBytes": "32",
        "value": "t_mapping(t_address,t_bool)"
      },
      "t_mapping(t_address,t_uint256)": {
        "encoding": "mapping",
        "key": "t_address",
        "label": "mapping(address => uint256)",
        "numberOfBytes": "32",
        "value": "t_uint256"
      },
      "t_mapping(t_uint256,t_mapping(t_address,t_uint256))": {
        "encoding": "mapping",
        "key": "t_uint256",
        "label": "mapping(uint256 => mapping(address => uint256))",
        "numberOfBytes": "32",
        "value": "t_mapping(t_address,t_uint256)"
      },
      "t_mapping(t_uint256,t_uint256)": {
        "encoding": "mapping",
        "key": "t_uint256",
        "label": "mapping(uint256 => uint256)",
        "numberOfBytes": "32",
        "value": "t_uint256"
      },
      "t_string_storage": {
        "encoding": "bytes",
        "label": "string",
        "numberOfBytes": "32"
      },
      "t_uint256": {
        "encoding": "inplace",
        "label": "uint256",
        "numberOfBytes": "32"
      }
    }
  }
}